:100000000C94F4030C9420040C9420040C9420040D
:100010000C9420040C9420040C9420040C942004D0
:100020000C9420040C9420040C9420040C942004C0
:100030000C9420040C9420040C9420040C942004B0
:100040000C9420040C9420040C9420040C942004A0
:100050000C9420040C9420040C9420040C94EB10B9
:100060000C9420040C9420040C9420040C94200480
:100070000C9420040C9420040C9420040C94200470
:100080000C9420040C9420040C9420040C94200460
:100090000C9420040C9420040C9420040C94200450
:1000A0000C9420040C9420040C9420040C94200440
:1000B0000C9420040C9420040C9420040C94200430
:1000C0000C9420040C9420040C9420040C94200420
:1000D0000C9420040C9420040C9420040C94200410
:1000E0000C94200400002100240027002A002D0089
:1000F0003000330001010000040107010A01000083
:100100002200250028002B002E00310034000201BF
:100110000000050108010B0100002000230026005B
:1001200029002C002F00320000010000030106010D
:10013000090105050505070508080808020202026D
:100140000A0A080804040404010101010101010173
:100150000303030303030303040707070C0C0C0C3E
:100160000C0C0C0C02020202060606060606060627
:100170000B0B0B0B0B0B0B0B0102102020080810B4
:100180002040102040800201020108040201010207
:1001900004081020408080402010080402018004E0
:1001A000020180402010080402010804020101023B
:1001B0000408102040800102040810204080000044
:1001C000090A02080B0C0D070603040100000000D9
:1001D000000000000000000000000000000000001F
:1001E0000000000000000000000011100F000000DF
:1001F00000000000000000000000000000000000FF
:100200000000000000000000003E5B4F5B3E3E6BC4
:100210004F6B3E1C3E7C3E1C183C7E3C181C577DA0
:10022000571C1C5E7F5E1C00183C1800FFE7C3E7EC
:10023000FF0018241800FFE7DBE7FF30483A060EFE
:100240002629792926407F050507407F05253F5A45
:100250003CE73C5A7F3E1C1C08081C1C3E7F1422B5
:100260007F22145F5F005F5F06097F017F00668960
:10027000956A606060606094A2FFA29408047E04A6
:100280000810207E201008082A1C08081C2A0808CC
:100290001E101010100C1E0C1E0C30383E3830068C
:1002A0000E3E0E06000000000000005F0000000788
:1002B000000700147F147F14242A7F2A12231308B6
:1002C000646236495620500008070300001C224192
:1002D000000041221C002A1C7F1C2A08083E080836
:1002E00000807030000808080808000060600020E6
:1002F000100804023E5149453E00427F40007249C9
:100300004949462141494D331814127F102745456C
:1003100045393C4A49493141211109073649494982
:1003200036464949291E00001400000040340000F0
:100330000008142241141414141400412214080259
:10034000015909063E415D594E7C1211127C7F49CC
:100350004949363E414141227F4141413E7F494921
:1003600049417F090909013E414151737F0808084D
:100370007F00417F41002040413F017F081422411E
:100380007F404040407F021C027F7F0408107F3E78
:100390004141413E7F090909063E4151215E7F09E5
:1003A000192946264949493203017F01033F40404C
:1003B000403F1F2040201F3F4038403F6314081437
:1003C0006303047804036159494D43007F4141416F
:1003D0000204081020004141417F04020102044050
:1003E00040404040000307080020545478407F28D4
:1003F0004444383844444428384444287F385454CA
:10040000541800087E090218A4A49C787F080404EC
:100410007800447D40002040403D007F102844008B
:1004200000417F40007C047804787C08040478381C
:1004300044444438FC1824241818242418FC7C084C
:10044000040408485454542404043F44243C4040C9
:10045000207C1C2040201C3C4030403C442810287C
:10046000444C9090907C4464544C440008364100C5
:100470000000770000004136080002010204023C3F
:100480002623263C1EA1A161123A4040207A38540E
:100490005455592155557941215454784121555489
:1004A000784020545579400C1E52721239555555DA
:1004B00059395454545939555454580000457C41C5
:1004C0000002457D420001457C40F0292429F0F0DE
:1004D000282528F07C545545002054547C547C0A2F
:1004E000097F4932494949323248484832324A48FC
:1004F00048303A4141217A3A42402078009DA0A0FC
:100500007D39444444393D4040403D3C24FF24244F
:10051000487E4943662B2FFC2F2BFF0929F620C06C
:10052000887E090320545479410000447D413048BD
:10053000484A32384040227A007A0A0A727D0D1900
:10054000317D2629292F28262929292630484D4062
:1005500020380808080808080808382F10C8ACBA5E
:100560002F102834FA00007B000008142A142222DD
:10057000142A1408AA005500AAAA55AA55AA0000D0
:1005800000FF00101010FF00141414FF001010FFE3
:1005900000FF1010F010F0141414FC001414F700F5
:1005A000FF0000FF00FF1414F404FC141417101FC4
:1005B00010101F101F1414141F00101010F0000052
:1005C00000001F101010101F10101010F01000006D
:1005D00000FF101010101010101010FF100000007D
:1005E000FF140000FF00FF00001F10170000FC04B4
:1005F000F414141710171414F404F40000FF00F797
:1006000014141414141414F700F7141414171410F9
:10061000101F101F141414F4141010F010F0000028
:100620001F101F0000001F14000000FC140000F049
:1006300010F01010FF10FF141414FF141010101FEE
:1006400000000000F010FFFFFFFFFFF0F0F0F0F0FF
:10065000FFFFFF0000000000FFFF0F0F0F0F0F381C
:10066000444438447C2A2A3E147E02020606027E56
:10067000027E0263554941633844443C04407E2075
:100680001E2006027E020299A5E7A5991C2A492A86
:100690001C4C7201724C304A4D4D30304878483015
:1006A000BC625A463D3E494949007E0101017E2A0D
:1006B0002A2A2A2A44445F444440514A4440404440
:1006C0004A51400000FF0103E080FF000008086B72
:1006D0006B083612362436060F090F06000018186C
:1006E0000000001010003040FF0101001F01011E3A
:1006F00000191D1712003C3C3C3C00000000000F9C
:100700000180961180FFB103012C2DB203012C2D25
:10071000B306012C2D012C2DB40107C003A20284C5
:10072000C101C5C2020A00C3028A2AC4028AEEC5F8
:10073000010E20003601C83A0105022A0400020019
:10074000812B04000100A0022A040000007F2B047A
:100750000000009F04E010021C07123732292D29E7
:10076000252B3900010310E110031D07062E2C294B
:100770002D2E2E373F0000021013800A29806412AC
:100780000180321180FF3A81050AB1830006030A15
:10079000360108B6021502B40100C08202700AC117
:1007A0000105C2020102C5823C380AFC021115E0B3
:1007B0001009160920211B131917151E2B040502F9
:1007C0000EE1900B14081E221D181E1B1A242B0666
:1007D00006020F0A2A04000200812B040002008195
:1007E00013800A2980FFB80411241FBECFEFD1E285
:1007F000DEBFCDBF00E00CBF12E0A0E0B2E0E6E655
:10080000F9E300E00BBF02C007900D92A037B107DB
:10081000D9F712E0A0E7B2E001C01D92A53AB107F6
:10082000E1F717E0C8EED7E004C02297FE010E946E
:10083000AD1CC63ED107C9F70E9404130C94811C5D
:100840000C9400000895DC01FB01828193811396D2
:100850009C938E9312978481958115969C938E9389
:1008600014978681978117969C938E93169780850F
:10087000918519969C938E931897828593851B96E4
:100880009C938E931A97848595851D969C938E9341
:100890001C97868597851F969C938E931E978089BB
:1008A000918951969C938E93509782899389539600
:1008B0009C938E935297848954968C9354978589F0
:1008C00055968C935597868956968C9356978BE5BB
:1008D00092E011969C938E93878957968C935797A5
:1008E000808D58968C935897818D928D5A969C93B3
:1008F0008E935997838D948D5C969C938E935B9782
:10090000858D968D5E969C938E935D97878D90A135
:1009100090969C938E935F9781A191968C939197DB
:1009200082A192968C93929783A193968C9393979E
:1009300084A194968C93949785A195968C93959782
:1009400086A196968C93969787A197968C93979766
:1009500080A598968C93989781A599968C93999752
:1009600082A59A968C939A9783A59B968C930895CB
:1009700080E792E066E047E028E00E94211C0895AD
:100980002F923F924F925F926F927F928F929F929F
:10099000AF92BF92CF92DF92EF92FF920F931F938D
:1009A000DF93CF93CDB7DEB7CE50D4400FB6F894D7
:1009B000DEBF0FBECDBF89E090E09A8389839C8320
:1009C0008B8382E090E09E838D8318861F82ADE347
:1009D0006A2EA1E07A2E6C0E7D1E82ED92E0F3016C
:1009E0009C01119221503040E1F780E792E062E0F3
:1009F0000E94F31B89E061E00E94A1128E01075F53
:100A00001F4FC80160E772E00E942304C8010E94E2
:100A1000630C81E00E94B7101C0180E00E94B710B7
:100A20002C018E010B5C1F4FC80160E772E00E9431
:100A3000230469817A814B815C81C80125E030E023
:100A40000E9499072FC0CE018F599F4F60E772E037
:100A50000E94230400D00F928D819E81EDB7FEB7D6
:100A60009283818328EC30E034832383CE018F5935
:100A70009F4FB101A2012CE231E08E010F5F1F4FA9
:100A8000F3E0EF2EF12CEC0EFD1EE3E0CE2ED12C88
:100A9000B5E0AB2EB12C43010E940A090F900F90D4
:100AA0000F900F9089E00E94D412019761F289E0C3
:100AB0000E94D412892BD9F3CE0183579F4F60E750
:100AC00072E00E9423040F920F9269817A814B8118
:100AD0005C8127E030E02C0F3D1FEDB7FEB732837D
:100AE0002183CE0183579F4F20E030E000E010E0EB
:100AF000A3E0EA2EF12CF5E0CF2ED12C5301E5E056
:100B00008E2E912C8C0E9D1E0E94050B0F900F9027
:100B1000CE0187549F4F60E772E00E9423046981F1
:100B20007A814B815C81CE0187549F4F25E030E074
:100B30000E9499078D819E818130910531F5CC24E9
:100B4000DD2420C0CE018B519F4F60E772E00E94F0
:100B50002304CE018B519F4FB601A70125E030E061
:100B600083010E94CD060894E11CF11C33E1E316D9
:100B7000F10441F70894C11CD11C83E1C816D104CB
:100B800009F490CFEE24FF24DDCF029709F08ACF3D
:100B9000CC24DD2420C0CE018F5E9E4F60E772E042
:100BA0000E942304CE018F5E9E4FB601A70125E06F
:100BB00030E083010E9468060894E11CF11C93E177
:100BC000E916F10441F70894C11CD11CE3E1CE16EB
:100BD000D10409F467CFEE24FF24DDCF6F927F921A
:100BE0008F929F92AF92BF92CF92DF92EF92FF923D
:100BF0000F931F93CF93DF933C01EB015A018901BF
:100C00004B01880C991C860E971E880C991C6A0152
:100C1000CC0CDD1CC40ED51ECC0CDD1CB401685FF1
:100C20007F4FA601485F5F4FEE24EA94FE2C0E949E
:100C3000681A209719F480E090E004C0629729F4C4
:100C400082E090E020E030E004C082E090E022E02A
:100C500030E0A114B10419F4AA24BB2407C042E176
:100C6000A416B10431F452E0A52EB12CC0E0D0E0BE
:100C700005C042E0A42EB12CC2E0D0E074014AE0ED
:100C800050E0E40EF51EC40ED51EB701681B790BAB
:100C90002D5F3F4FC301A60100E010E00E94FB1949
:100CA000CA18DB082396C301B701A6019E010E9462
:100CB000A919DF91CF911F910F91FF90EF90DF90D5
:100CC000CF90BF90AF909F908F907F906F9008953E
:100CD000AF92BF92CF92DF92EF92FF920F931F934A
:100CE000DF93CF93CDB7DEB7AC970FB6F894DEBFE6
:100CF0000FBECDBFDC017B016A015901F80186E21C
:100D000090E09C01629FC001639F900D729F900DC7
:100D10001124E80FF91F440F551FE40FF51F019030
:100D2000F081E02DCF0104970297B8F4660F771F8A
:100D30006E0D7F1D660F771F685F7F4F4C0D5D1D29
:100D4000440F551F485F5F4FCD0195018501E12C90
:100D5000A8EFFA2E0E94681A0FC0339769F48E012B
:100D60000F5F1F4FC801BD010E942304C801B701D6
:100D7000A60195010E94EE05AC960FB6F894DEBF71
:100D80000FBECDBFCF91DF911F910F91FF90EF90DC
:100D9000DF90CF90BF90AF900895AF92BF92CF9267
:100DA000DF92EF92FF920F931F93DF93CF93CDB714
:100DB000DEB7AC970FB6F894DEBF0FBECDBFDC0137
:100DC0007B016A01590186E290E09C01629FC001AB
:100DD000639F900D729F900D1124800F911FFA0157
:100DE000EE0FFF1FE80FF91F0190F081E02DE330B7
:100DF000F10519F0E530F105D9F4B701660F771F59
:100E00006E0D7F1D660F771F685F7F4FA601440F31
:100E1000551F4C0D5D1D440F551F485F5F4FCD01A1
:100E200095018501E12CE8EFFE2E0E94681A0FC0A3
:100E3000349769F48E010F5F1F4FC801BD010E94F6
:100E40002304C801B701A60195010E94EE05AC96E6
:100E50000FB6F894DEBF0FBECDBFCF91DF911F91CB
:100E60000F91FF90EF90DF90CF90BF90AF900895DB
:100E70004F925F926F927F928F929F92AF92BF92AA
:100E8000CF92DF92EF92FF920F931F93DF93CF9356
:100E9000CDB7DEB7AC970FB6F894DEBF0FBECDBFAF
:100EA0002C013B015A01CC24DD244E010894811C05
:100EB000911C24C0F701808191810397039750F41E
:100EC000C401B2010E942304C401B601A801930128
:100ED0000E94EE050F5F1F4F82E090E0E80EF91EC2
:100EE0000331110539F70894C11CD11CE6E2F0E08A
:100EF000AE0EBF1EF3E1CF16D10421F0750100E064
:100F000010E0D8CFAC960FB6F894DEBF0FBECDBFC1
:100F1000CF91DF911F910F91FF90EF90DF90CF90D5
:100F2000BF90AF909F908F907F906F905F904F9009
:100F300008956F927F928F929F92AF92BF92CF92BD
:100F4000DF92EF92FF920F931F933C0149015B01E7
:100F5000AA0CBB1CA60EB71EAA0CBB1C88E090E016
:100F6000A80EB91E6A01CC0CDD1CC40ED51ECC0C1B
:100F7000DD1CC80ED91EC301B501A6019401840170
:100F8000EE24EA94FE2C0E94681AC301B501A60162
:100F90009401EE24FF240E9463161F910F91FF908D
:100FA000EF90DF90CF90BF90AF909F908F907F9009
:100FB0006F900895EF92FF920F931F93DB017A01D8
:100FC000F80146E250E0BA01A69FA001A79F500D8C
:100FD000B69F500D1124E40FF51FA701440F551FB4
:100FE000E40FF51F62E070E071836083BD01660F5E
:100FF000771F6A0F7B1F660F771F665F7F4F4E0D4F
:101000005F1D440F551F465F5F4F00E010E00E94D8
:1010100083151F910F91FF90EF9008958F929F92EB
:10102000AF92BF92CF92DF92EF92FF920F931F93F6
:10103000982E892E5901F80186E290E09C01629F6A
:10104000C001639F900D729F900D1124E80FF91F4E
:101050006A01CC0CDD1CEC0DFD1D81E090E091835C
:1010600080837B01EE0CFF1CE60EF71EEE0CFF1CCE
:101070008AE090E0E80EF91EC40ED51ECC0CDD1CF3
:10108000C80ED91E892D982DB701A60195010FEF25
:101090001FEF0E948315892D982DB701A601950198
:1010A00000E010E00E9472131F910F91FF90EF90EB
:1010B000DF90CF90BF90AF909F908F9008954F9208
:1010C0005F926F927F928F929F92AF92BF92CF92D8
:1010D000DF92EF92FF920F931F93DF93CF93CDB7E1
:1010E000DEB7C458D0400FB6F894DEBF0FBECDBFF8
:1010F000DC015B014A0129013801960186E290E09A
:10110000689FF001699FF00D789FF00D1124EE0D9E
:10111000FF1DCA01880F991FE80FF91F0190F08188
:10112000E02DE130F10579F48E010F5F1F4FC8010A
:10113000BD010E942304C801B501A40192018701E9
:101140000E940E084FC0E230F10579F48E01035D74
:101150001F4FC801BD010E942304C801B501A401AD
:10116000920187010E94DA073DC0C6010296E81786
:10117000F90719F0E530F105D9F4B501660F771FCD
:101180006A0D7B1D660F771F685F7F4FA401440FB8
:10119000551F480D591D440F551F485F5F4FCD0126
:1011A00093018301E12CB8EFFB2E0E94681A1AC04C
:1011B000309759F02130310519F4349799F405C06E
:1011C0002230310579F4339769F48E01075A1F4FA5
:1011D000C801BD010E942304C801B501A401930107
:1011E0000E94EE05CC57DF4F0FB6F894DEBF0FBE5E
:1011F000CDBFCF91DF911F910F91FF90EF90DF90C6
:10120000CF90BF90AF909F908F907F906F905F90A6
:101210004F9008952F923F924F925F926F927F92DC
:101220008F929F92AF92BF92CF92DF92EF92FF92F6
:101230000F931F93DF93CF93CDB7DEB7CC56D1403A
:101240000FB6F894DEBF0FBECDBFCB59DE4F9983EA
:101250008883C556D1401B01C959DE4F5983488345
:10126000C756D140C759DE4F39832883C956D1406C
:1012700038012701C559DE4FD982C882CB56D140EB
:1012800081E00E94B710CD59DE4F99838883C35601
:10129000D14080E00E94B710CF59DE4F99838883F8
:1012A000C156D140C101C759DE4F28813981C95685
:1012B000D140821B930BCD59DE4FE881F981C35693
:1012C000D140E817F9070CF046C0F7018081918101
:1012D000181619060CF03FC08E010F5F1F4FC80192
:1012E000CB59DE4F68817981C556D1400E942304D5
:1012F000F30160817181F70140815181C801C559B5
:10130000DE4F28813981CB56D14085017401CE57FB
:10131000DE4FC880D980C258D1400E945F08F201D8
:10132000808191810197918380838E01035D1F4F9E
:10133000C801CB59DE4F68817981C556D1400E94E2
:101340002304F30160817181F20140815181C80160
:1013500095010E949907C759DE4F28813981C956E6
:10136000D140220E331ECD59DE4F88819981C3565C
:10137000D140281639060CF045C0F20180819181D8
:1013800042970CF03FC08E01075A1F4FC801CB593E
:10139000DE4F68817981C556D1400E942304F30154
:1013A00060817181F20140815181C801C559DE4FD0
:1013B00028813981CB56D14085017401CE57DE4F4B
:1013C000C880D980C258D1400E945F08F201808154
:1013D00091810196918380838E010B571F4FC80125
:1013E000CB59DE4F68817981C556D1400E942304D4
:1013F000F30160817181F20140815181C801950141
:101400000E949907C959DE4F88819981C756D140FA
:10141000C759DE4F28813981C956D140821B930BB1
:10142000CF59DE4FE881F981C156D140E817F9075D
:101430000CF046C0F30180819181181619060CF05A
:101440003FC08E010F541F4FC801CB59DE4F68813A
:101450007981C556D1400E942304F30160817181D6
:10146000F20140815181C801C559DE4F288139817F
:10147000CB56D14085017401CE57DE4FC880D9804C
:10148000C258D1400E945F08F30180819181019789
:10149000918380838E0103521F4FC801CB59DE4FC9
:1014A00068817981C556D1400E942304F30160818F
:1014B0007181F20140815181C80195010E94990713
:1014C000C759DE4F28813981C956D140C959DE4FED
:1014D00088819981C756D140280F391FCF59DE4FD7
:1014E000E881F981C156D1402E173F070CF045C065
:1014F000F3018081918142970CF03FC08E01075F1C
:101500001E4FC801CB59DE4F68817981C556D14045
:101510000E942304F30160817181F20140815181B5
:10152000C801C559DE4F28813981CB56D14085018C
:101530007401CE57DE4FC880D980C258D1400E9476
:101540005F08F301808191810196918380838E01F0
:101550000B5C1E4FC801CB59DE4F68817981C5569F
:10156000D1400E942304F30160817181F201408126
:101570005181C80195010E949907CC57DE4F6881BF
:101580007981C458D140882777FD8095982F0E9493
:101590003311C459DE4F0FB6F894DEBF0FBECDBF76
:1015A000CF91DF911F910F91FF90EF90DF90CF903F
:1015B000BF90AF909F908F907F906F905F904F9073
:1015C0003F902F900895EF92FF920F931F93182F43
:1015D000092F7B016AE070E040E850E00E94861825
:1015E000812F902F60E070E00E948C18812F902F47
:1015F00061E00E949218812F902FB7010E94511331
:101600001F910F91FF90EF9008952F923F924F926C
:101610005F926F927F928F929F92AF92BF92CF9282
:10162000DF92EF92FF920F931F93DF93CF93CDB78B
:10163000DEB7CE5BD1400FB6F894DEBF0FBECDBF94
:101640001C013B012A01C754DE4F39832883C95B43
:10165000D140C554DE4F19830883CB5BD140C354BE
:10166000DE4FD982C882CD5BD140CC52DE4FC880DC
:10167000D980C45DD14086E290E0689FF001699F07
:10168000F00D789FF00D1124EA0DFB1DCA01880FA3
:10169000991FE80FF91F0190F081E02DCF0101970C
:1016A000029708F58E010F5F1F4FC801B1010E941C
:1016B0002304C80160E072E00E94E30A68EE73E070
:1016C00080E090E00E943311C10160E070E040E8EA
:1016D00050E020E830E000E210E0EE24EA94FE2C36
:1016E0000E94681AC3C0D4012D913C91C901029691
:1016F000E817F90719F0359709F05FC02130310577
:1017000061F58E01035D1F4FC801B1010E942304E2
:10171000C801B301A201970185010E940E088E0144
:10172000075A1F4FC801B1010E942304C80160E29B
:1017300072E00E94E30A8E010B571F4FC801B101EE
:101740000E942304C801C354DE4F68817981CD5BB8
:10175000D140A5010E943807FFCF2230310509F0A2
:1017600085C08E010F541F4FC801B1010E94230490
:10177000C801B301A201970185010E94DA078E0119
:1017800003521F4FC801B1010E942304C8016CE23B
:1017900072E00E94E30A8E01075F1E4FC801B1018B
:1017A0000E942304C801C354DE4F68817981CD5B58
:1017B000D140A5010E943807FFCF2230310561F5E5
:1017C0008E010B5C1E4FC801B1010E942304C801A9
:1017D000B301A201970185010E94DA07F40180811B
:1017E0009181B301A201C754DE4F28813981C95BC1
:1017F000D140C554DE4F08811981CB5BD1407501C2
:101800000E947C1081E090E0D4018D939C93F601BE
:1018100080819181019628C02130310539F58E01F2
:101820000F591E4FC801B1010E942304C801B30122
:10183000A201970185010E940E08D4018D919C910F
:10184000B301A201C754DE4F28813981C95BD14061
:10185000C554DE4F08811981CB5BD14075010E94D0
:101860007C1082E090E0F40191838083D6018D9119
:101870009C91853B910569F48E0103571E4FC80169
:10188000B1010E942304C80168E372E00E94E30AE8
:10189000FFCFC254DE4F0FB6F894DEBF0FBECDBFF0
:1018A000CF91DF911F910F91FF90EF90DF90CF903C
:1018B000BF90AF909F908F907F906F905F904F9070
:1018C0003F902F900895EF92FF920F931F93CF9325
:1018D000DF937C016FEF7FEF0E944D1ACAE0D0E0EA
:1018E000C7016AE070E0AE012CE630E000E010E0F5
:1018F0000E94FB192696CC37D10591F7CAE0D0E0BB
:10190000C701BE014AE050E02DE630E000E010E003
:101910000E94A9192696CC37D10591F7DF91CF9176
:101920001F910F91FF90EF90089582309105D9F4A7
:1019300086E290E0689FF001699FF00D789FF00DBE
:101940001124E20FF31F440F551FE40FF51F808190
:101950009181009719F484E090E01CC0039719F579
:1019600085E090E017C00197F1F486E290E0689F6F
:10197000F001699FF00D789FF00D1124E20FF31F25
:10198000440F551FE40FF51F80819181009729F4C2
:1019900083E090E0918380830895049721F485E0AB
:1019A00090E09183808308958F929F92AF92BF922F
:1019B000CF92DF92EF92FF920F931F93CF93DF931B
:1019C0007C014B015A0186E290E0689F6001699FAB
:1019D000D00C789FD00C1124C40ED51E00E010E06E
:1019E000F801EE0FFF1FEC0DFD1D808191818E151A
:1019F0009F0509F06CC00F5F1F4FF801EE0FFF1F2E
:101A0000EC0DFD1D80819181E80121968E159F05C9
:101A1000C9F58E01FE01EE0FFF1FEC0DFD1D80814B
:101A2000918121968E159F0509F58E01FE01EE0F1D
:101A3000FF1FEC0DFD1D808191818E159F0599F48E
:101A4000C330D10559F0AE0144505040C701B40134
:101A500095010E94950CC231D105C9F12196C701AB
:101A6000B401AE0131C0FE01319622C0CC0FDD1FA2
:101A7000CC0DDD1D888199818E159F0541F5F801FA
:101A8000329616C0CC0FDD1FCC0DDD1D88819981EB
:101A90008E159F05E1F4F8013296EE0FFF1FEC0D55
:101AA000FD1D808191818E159F0589F4F801339683
:101AB000EE0FFF1FEC0DFD1D808191818E159F059E
:101AC00031F4C701B401A80195010E94950C0F5F84
:101AD0001F4F003111050CF483CFDF91CF911F917F
:101AE0000F91FF90EF90DF90CF90BF90AF909F90BD
:101AF0008F9008956F927F928F929F92AF92BF9234
:101B0000CF92DF92EF92FF920F931F93CF93DF93C9
:101B10007C014B016A01C0E0D0E006E2602E712C2E
:101B20005B01AA0CBB1CC69DF001C79DF00DD69DA4
:101B3000F00D1124EC0DFD1DEA0DFB1D808191813E
:101B40008E159F0509F09BC02196C69DD001C79DAB
:101B5000B00DD69DB00D1124AC0DBD1DFD01EA0DDB
:101B6000FB1D808191818E010F5F1F4F8E159F0598
:101B700009F05CC0E801069DD001079DB00D169DDF
:101B8000B00D1124AC0DBD1DFD01EA0DFB1D8081C2
:101B900091810F5F1F4F8E159F05A9F5E801069DE6
:101BA000F001079DF00D169DF00D1124EC0DFD1DAB
:101BB000EA0DFB1D808191818E159F05A1F40330F4
:101BC000110561F0B80164507040C701A40196018D
:101BD0000E94950C0231110509F451C00F5F1F4F8F
:101BE000C701B80148C02196C69DF001C79DF00D00
:101BF000D69DF00D11242197EC0DFD1DEA0DFB1D66
:101C00008081918133C0069DF001079DF00D169DE6
:101C1000F00D1124EC0DFD1DEA0DFB1D808191815D
:101C20008E159F0561F5A45BBF4F1CC0069DF0019A
:101C3000079DF00D169DF00D1124EC0DFD1DEA0D14
:101C4000FB1D808191818E159F05C9F4FD01E45B28
:101C5000FF4FEA0DFB1D808191818E159F0579F460
:101C6000AE58BF4FAA0DBB1D8D919C918E159F053F
:101C700031F4C701BE01A40196010E94950C219682
:101C8000C031D1050CF44FCFDF91CF911F910F914F
:101C9000FF90EF90DF90CF90BF90AF909F908F908C
:101CA0007F906F9008956F927F928F929F92AF92E4
:101CB000BF92CF92DF92EF92FF920F931F93CF9339
:101CC000DF93580147014217530734F07A01E21AB3
:101CD000F30ACC24DD24EFC06901C41AD50AEE242E
:101CE000FF24E9C0E69CF001E79CF00DF69CF00DA6
:101CF0001124E80DF91DC601880F991FE80FF91F7F
:101D0000808191818A159B0509F0CEC00894E11C61
:101D1000F11C0894C11CD11CE69CD001E79CB00DBD
:101D2000F69CB00D1124A80DB91DF601EE0FFF1F92
:101D3000EA0FFB1F8081918187010F5F1F4FE60132
:101D400021968A159B0509F07CC078016E01069DDD
:101D5000D001079DB00D169DB00D1124A80DB91D21
:101D6000FE01EE0FFF1FEA0FFB1F808191810F5FC5
:101D70001F4F21968A159B0509F04CC078016E0112
:101D8000069DF001079DF00D169DF00D1124E80D44
:101D9000F91DCE01880F991FE80FF91F80819181ED
:101DA0008A159B05F9F4043011056CF0C430D10597
:101DB00054F0B80164507040AE0144505040C50129
:101DC00094010E94950C0231110509F46DC0C231D5
:101DD000D10509F469C00F5F1F4F2196C501B801F5
:101DE000AE015FC00894E11CF11CE69CF001E79C89
:101DF000F00DF69CF00D11240894E108F108E80DAF
:101E0000F91DCE010196880F991FE80FF91F8081F7
:101E1000918141C0069DF001079DF00D169DF00DCA
:101E20001124E80DF91DCC0FDD1FEC0FFD1F808183
:101E300091818A159B05C1F5A45BBF4FC60102962F
:101E400024C0069DF001079DF00D169DF00D112494
:101E5000E80DF91DCC0FDD1FEC0FFD1F8081918176
:101E60008A159B0509F5FD01E45BFF4FC60102964B
:101E7000880F991FE80FF91F808191818A159B05B2
:101E800099F4AE58BF4FC6010396880F991FA80F4B
:101E9000B91F8D919C918A159B0531F4C501B7013D
:101EA000A60194010E94950C0894E11CF11C089471
:101EB000C11CD11C03C086E2682E712C80E1E8169B
:101EC000F1042CF480E1C816D1040CF40BCFDF919F
:101ED000CF911F910F91FF90EF90DF90CF90BF9027
:101EE000AF909F908F907F906F9008956F927F92A8
:101EF0008F929F92AF92BF92CF92DF92EF92FF921A
:101F00000F931F93CF93DF9349016801570182E13B
:101F100090E0821B930B8417950734F07901E40E4F
:101F2000F51E00E010E0CEC08A0102511040020F01
:101F3000131F42E1E42EF12CC5C0E69CF001E79CA2
:101F4000F00DF69CF00D1124EA0DFB1DC801880F61
:101F5000991FE80FF91F808191818C159D0509F06B
:101F6000ABC00894E108F1080F5F1F4FE69CD00159
:101F7000E79CB00DF69CB00D1124AA0DBB1DF80115
:101F8000EE0FFF1FEA0FFB1F80819181E801219670
:101F90008C159D0509F064C00894E108F1088E01D4
:101FA000E69CD001E79CB00DF69CB00D1124AA0D63
:101FB000BB1DFE01EE0FFF1FEA0FFB1F8081918109
:101FC00021968C159D05E1F50894E108F1088E0134
:101FD000E69CD001E79CB00DF69CB00D1124AA0D33
:101FE000BB1DFE01EE0FFF1FEA0FFB1F80819181D9
:101FF0008C159D0509F58FE0E816F10474F484E072
:102000008816910454F0B7016C5F7F4FAE014450C5
:102010005040C60195010E94950CE114F10409F4A9
:102020004BC0C231D10509F447C0B70161507040BF
:102030002196C601AE013DC09697CE0101962DC0F6
:10204000FD01B697CC0FDD1FEC0FFD1F8081918144
:102050008C159D0589F5AC54B040C80102961DC091
:10206000FD01B697CC0FDD1FEC0FFD1F8081918124
:102070008C159D0509F5FD01EC54F040C801029650
:10208000880F991FE80FF91F808191818C159D059C
:1020900099F4A257B040C8010396880F991FA80F62
:1020A000B91F8D919C918C159D0531F4C601B70126
:1020B000A80195010E94950C0894E108F1080F5FB2
:1020C0001F4F03C036E2632E712C83E0E816F10443
:1020D00024F0003111050CF430CFDF91CF911F9126
:1020E0000F91FF90EF90DF90CF90BF90AF909F90B7
:1020F0008F907F906F9008952F923F924F925F92B2
:102100006F927F928F929F92AF92BF92CF92DF9207
:10211000EF92FF920F931F935C014B013A0129014B
:102120001801A7010E94D40CC501B301A7010E94A8
:102130007A0DC201B801A401930185010E94530EDA
:10214000C201B101A40193010E94760F1F910F916A
:10215000FF90EF90DF90CF90BF90AF909F908F90C7
:102160007F906F905F904F903F902F900895382F01
:10217000863308F0365320917B00832F8695869511
:10218000869590E08170907043E0880F991F4A9582
:10219000E1F7277F282B20937B00377080913E0248
:1021A0008295880F880F807C832B80937C008091A0
:1021B0007A00806480937A0080917A0086FDFCCF5B
:1021C0002091780040917900942F80E030E0282B16
:1021D000392BC90108951F920F920FB60F92112447
:1021E0002F933F938F939F93AF93BF938091A002C0
:1021F0009091A102A091A202B091A3023091A402F9
:102200000196A11DB11D232F2D5F2D3720F02D57D5
:102210000196A11DB11D2093A4028093A00290936A
:10222000A102A093A202B093A30280919C0290917C
:102230009D02A0919E02B0919F020196A11DB11D29
:1022400080939C0290939D02A0939E02B0939F0264
:10225000BF91AF919F918F913F912F910F900FBEA2
:102260000F901F9018959B01AC017FB7F894809157
:102270009C0290919D02A0919E02B0919F0266B532
:10228000A89B05C06F3F19F00196A11DB11D7FBF2E
:10229000BA2FA92F982F8827860F911DA11DB11D38
:1022A00062E0880F991FAA1FBB1F6A95D1F7BC0176
:1022B0002DC0FFB7F89480919C0290919D02A0914F
:1022C0009E02B0919F02E6B5A89B05C0EF3F19F0B2
:1022D0000196A11DB11DFFBFBA2FA92F982F8827E6
:1022E0008E0F911DA11DB11DE2E0880F991FAA1F3D
:1022F000BB1FEA95D1F7861B970B885E9340C8F207
:10230000215030404040504068517C4F21153105EC
:102310004105510571F60895789484B5826084BDB5
:1023200084B5816084BD85B5826085BD85B58160D9
:1023300085BDEEE6F0E0808181608083E1E8F0E039
:102340001082808182608083808181608083E0E868
:10235000F0E0808181608083E1EBF0E08081846047
:102360008083E0EBF0E0808181608083E1E9F0E050
:10237000808182608083808181608083E0E9F0E0F9
:10238000808181608083E1EAF0E0808182608083E7
:10239000808181608083E0EAF0E0808181608083D9
:1023A000E1E2F1E0808182608083808181608083CE
:1023B000E0E2F1E0808181608083EAE7F0E0808103
:1023C000846080838081826080838081816080835B
:1023D0008081806880831092C1000895CF93DF933D
:1023E000482F50E0CA0188589E4FFC0134914E5C42
:1023F0005E4FFA018491882369F190E0880F991F5C
:10240000FC01EC51FF4FA591B491FC01E250FF4F4C
:10241000C591D491662351F42FB7F8948C91932FE2
:10242000909589238C93888189230BC0623061F455
:102430002FB7F8948C91932F909589238C93888152
:10244000832B88832FBF06C09FB7F8948C91832B72
:102450008C939FBFDF91CF910895893009F449C0D3
:102460008A30A0F4843051F1853040F4823079F123
:10247000833000F5813009F063C026C0873079F1E0
:10248000883098F5863009F05BC025C08D3009F49E
:1024900042C08E3028F48B30B1F18C30C0F52DC0A5
:1024A000803109F442C0813109F445C08F3009F010
:1024B00047C037C0809180008F7703C08091800033
:1024C0008F7D80938000089584B58F7702C084B596
:1024D0008F7D84BD08958091B0008F7703C0809177
:1024E000B0008F7D8093B0000895809190008F7729
:1024F00007C0809190008F7D03C080919000877FFE
:102500008093900008958091A0008F7707C08091FC
:10251000A0008F7D03C08091A000877F8093A000E2
:102520000895809120018F7703C0809120018F7DD5
:1025300080932001089580912001877F809320015E
:102540000895FF920F931F93F62E482F50E0CA0173
:1025500082549E4FFC012491CA0188589E4FFC0171
:1025600014914E5C5E4FFA0104910023C9F02223BE
:1025700019F0822F0E942D12E02FF0E0EE0FFF1FC6
:10258000E250FF4FA591B4919FB7F894FF2021F43A
:102590008C911095812302C08C91812B8C939FBFCD
:1025A0001F910F91FF9008950F931F93482F50E0B4
:1025B000CA0182549E4FFC012491CA0188589E4F43
:1025C000FC0104914E5C5E4FFA011491112319F441
:1025D00020E030E015C0222319F0822F0E942D1236
:1025E000812F90E0880F991F885E9E4FFC01A59176
:1025F000B4918C9120E030E0802311F021E030E0B4
:10260000C9011F910F910895CF93DF930E948C1100
:102610000E94C004C0E0D0E00E9422042097E1F3B1
:102620000E940000F9CFCF92DF92EF92FF920F93BA
:102630001F93CF93DF937C016B018A01C0E0D0E050
:102640000FC0D6016D916D01D701ED91FC91019004
:10265000F081E02DC7011995C80FD91F0150104016
:102660000115110571F7CE01DF91CF911F910F91E7
:10267000FF90EF90DF90CF900895CF93DF93DB0131
:102680000D900020E9F71197A61BB70BEC01E8812C
:10269000F9810280F381E02DAD011995DF91CF9191
:1026A00008950E943D130895FC011382128283E471
:1026B00092E0918380837583648357834683718717
:1026C000608753874287158A158614861786168673
:1026D00021E0248B8FEF9FEF938B828B918B808BEC
:1026E000268B08952F923F924F925F926F927F9226
:1026F0008F929F92AF92BF92CF92DF92EF92FF9212
:102700000F931F93DF93CF93CDB7DEB728970FB604
:10271000F894DEBF0FBECDBF98878F831B012A01BF
:102720007901580121E030E02E193F093E832D83C5
:10273000C701880F991FAA27BB27A81BB90BBA830B
:10274000A983AF81B885ED91FC911197A701440D44
:10275000551D0480F581E02DCD0198011995AF81BB
:10276000B885ED91FC911197A2014E195F09048083
:10277000F581E02DCD01B10198011995AF81B885A2
:10278000ED91FC911197B701620D731D0480F581E5
:10279000E02DCD01A20198011995AF81B885ED9189
:1027A000FC911197B1016E197F090480F581E02D2C
:1027B000CD01A201980119953701E1E0F0E0FC8319
:1027C000EB83882499249EC02D813E8137FD0CC067
:1027D00008946108710889819A8102969A83898395
:1027E000280F391F3E832D830894811C911CAB81D7
:1027F000BC811296BC83AB83ED81FE81EA0FFB1F87
:10280000FE83ED836401C20CD31C8301040D151DEE
:10281000AF81B885ED91FC9111970480F581E02D91
:10282000CD01B601A801950119957101E818F908C3
:10283000AF81B885ED91FC9111970480F581E02D71
:10284000CD01B701A8019501199582010619170953
:10285000AF81B885ED91FC9111970480F581E02D51
:10286000CD01B601A80195011995AF81B885ED910B
:10287000FC9111970480F581E02DCD01B701A801ED
:10288000950119956301C20CD31C8401040D151D1B
:10289000AF81B885ED91FC9111970480F581E02D11
:1028A000CD01B601A801950119957101E618F70847
:1028B000AF81B885ED91FC9111970480F581E02DF1
:1028C000CD01B701A80195011995820108191909CF
:1028D000AF81B885ED91FC9111970480F581E02DD1
:1028E000CD01B601A80195011995AF81B885ED918B
:1028F000FC9111970480F581E02DCD01B701A8016D
:1029000095011995861497040CF45ECF28960FB69E
:10291000F894DEBF0FBECDBFCF91DF911F910F9115
:10292000FF90EF90DF90CF90BF90AF909F908F90EF
:102930007F906F905F904F903F902F9008952F92CF
:102940003F924F925F926F927F928F929F92AF923F
:10295000BF92CF92DF92EF92FF920F931F93DF937C
:10296000CF93CDB7DEB72E970FB6F894DEBF0FBE6C
:10297000CDBF9E878D871B015E834D83A7012601F6
:1029800071E0C72ED12CC21AD30AC901880F991F32
:1029900066277727681B790B7A8369836D807E8031
:1029A00008946108710883E0882E912C8E0C9F1C7E
:1029B000790181E090E09C838B83AA24BB2410E002
:1029C000D801A170B070B887AF83FA013196FA8749
:1029D000E987B801627070707C876B8777C0D7FC1D
:1029E0000AC00894E108F10889819A8102969A83C5
:1029F0008983C80ED91E0894A11CB11CAB81BC816F
:102A00001296BC83AB83EF81F885EF2B41F1AD8546
:102A1000BE85ED91FC911197B501620D731D4D813D
:102A20005E814E195F099701220F331F89859A85B0
:102A3000280F391F0084F185E02DCD018201199501
:102A4000AD85BE85ED91FC911197B701620D731DA7
:102A50000084F185E02DCD01A30194011995EB854A
:102A6000FC85EF2B41F1AD85BE85ED91FC91119771
:102A7000B1016A197B094D815E814E195F09970189
:102A8000220F331F89859A85280F391F0084F1850D
:102A9000E02DCD0182011995AD85BE85ED91FC91AA
:102AA0001197B1016E197F090084F185E02DCD01E8
:102AB000A30194011995EB81FC81CE0EDF1E0894D1
:102AC0006108710862E070E0860E971EAE14BF04C4
:102AD0000CF485CF2E960FB6F894DEBF0FBECDBF97
:102AE000CF91DF911F910F91FF90EF90DF90CF90EA
:102AF000BF90AF909F908F907F906F905F904F901E
:102B00003F902F9008956F927F928F929F92AF92F5
:102B1000BF92CF92DF92EF92FF920F931F937C01AF
:102B20004B013A0159016801DC01ED91FC91421B16
:102B3000530B220F331F2F5F3F4F0084F185E02D91
:102B40001995C701B401A301950103E0EE24FF2408
:102B50000E949F141F910F91FF90EF90DF90CF90F4
:102B6000BF90AF909F908F907F906F9008952F921D
:102B70003F924F925F926F927F928F929F92AF920D
:102B8000BF92CF92DF92EF92FF920F931F93DF934A
:102B9000CF9300D00F92CDB7DEB73C017C836B831F
:102BA0006A015901FA82E982222433249801241B04
:102BB000350B37FF03C0309521953F4FC5014B8141
:102BC0005C81841B950B97FF03C0909581959F4F67
:102BD000821793075CF481E0282E312CC601CB804C
:102BE000DC809C838B83C80185015C018B819C8187
:102BF000A816B90644F4C501AB80BC809C838B83C6
:102C0000C80186016C012501AB81BC814A1A5B0AAF
:102C10007801EC18FD08F7FE04C0F094E194F10887
:102C2000F394C016D10624F088248A94982C03C00B
:102C3000B1E08B2E912CC20162E070E00E94981CE2
:102C40008B0125C0D301ED91FC912114310441F099
:102C50000480F581E02DC301B6014B815C8107C082
:102C60000480F581E02DC3016B817C81A60129815F
:102C70003A8119950E191F0917FF04C0C80CD91CF9
:102C8000040D151DEB81FC813196FC83EB834B8198
:102C90005C81A416B506B4F60F900F900F900F90BC
:102CA000CF91DF911F910F91FF90EF90DF90CF9028
:102CB000BF90AF909F908F907F906F905F904F905C
:102CC0003F902F9008954F925F926F927F928F92D4
:102CD0009F92AF92BF92CF92DF92EF92FF920F93AB
:102CE0001F936C015B014A0139012801DC01ED9160
:102CF000FC910284F385E02D87011995D601ED91B1
:102D0000FC91A40141505040440D551D0284F385AF
:102D1000E02DC601B50193011995D601ED91FC9105
:102D20000084F185E02DC601B501A4019201199539
:102D3000D601ED91FC910894A108B108A60CB71C2E
:102D40000084F185E02DC601B501A4019201199519
:102D50001F910F91FF90EF90DF90CF90BF90AF90B9
:102D60009F908F907F906F905F904F900895CF923B
:102D7000DF92EF92FF920F931F93DC016B017801BA
:102D8000ED91FC918A0101501040020F131F068043
:102D9000F781E02D960119951F910F91FF90EF900B
:102DA000DF90CF900895CF92DF92EF92FF920F9332
:102DB0001F93DC016A01C9017801ED91FC91119723
:102DC0009B0121503040280F391F0680F781E02DEC
:102DD000CD01860119951F910F91FF90EF90DF9023
:102DE000CF9008956F927F928F929F92AF92BF92F1
:102DF000CF92DF92EF92FF920F931F93CF93DF93C7
:102E00005C013A0169014801EB01C60ED71E0DC0F5
:102E1000D501ED91FC910084F185E02DC501BE0145
:102E2000A3019401870119952196CC15DD0584F342
:102E3000DF91CF911F910F91FF90EF90DF90CF9096
:102E4000BF90AF909F908F907F906F900895EF927A
:102E5000FF920F931F93FC017B01A081B18120851C
:102E60003185028513851E960D90BC91A02D60E0E2
:102E700070E040E050E0FD0119951F910F91FF9027
:102E8000EF9008952F923F924F925F926F927F92B0
:102E90008F929F92AF92BF92CF92DF92EF92FF926A
:102EA0000F931F93DF93CF93CDB7DEB72F970FB656
:102EB000F894DEBF0FBECDBF5C015E834D831887E3
:102EC0000F83FA86E986CB86DC0118968D919C915A
:102ED0001997681779070CF0A4C01A968D919C91E8
:102EE0001B97481759070CF09CC0EC2DF0E0FF87AA
:102EF000EE87CF01880F991F8E0F9F1F880F991F94
:102F0000860F971F181619060CF08BC0CF01F3E03F
:102F1000880F991FFA95E1F7840F951F1816190667
:102F20000CF07FC085E0289FA00111245A834983BB
:102F30002B011B011C825C81553011F480E005C01F
:102F4000E981FA81EC5FFD4F84912C863D866D808E
:102F50007E8043011B82C82EDD2480FF1CC0D5016A
:102F6000ED91FC91BB85B13049F40480F581E02DF1
:102F7000C501B201A3012F81388522C00684F785DF
:102F8000E02DC5016C857D85A4012E853F858901D5
:102F9000EF80F88423C0E985FA852F813885E21710
:102FA000F307E9F0D501ED91FC91BB85B13051F407
:102FB0000480F581E02DC501B201A30129853A8580
:102FC00019950DC00684F785E02DC5016C857D85BA
:102FD000A4012E853F858901E984FA841995EB8146
:102FE000EF5FEB832E853F85820E931E0894611C54
:102FF000711CE83021F0D594C7948C2DACCF3C8166
:103000003F5F3C834E855F85240E351E0894411C2E
:10301000511C89819A8101969A838983363009F0FF
:103020008ACF2F960FB6F894DEBF0FBECDBFCF91DB
:10303000DF911F910F91FF90EF90DF90CF90BF90A5
:10304000AF909F908F907F906F905F904F903F9048
:103050002F900895CF92EF92FF920F931F93CF93EB
:10306000DF93EC01262F6A3061F42C8930E003E015
:10307000220F331F0A95E1F78E859F85820F931FDC
:1030800037C06D30C9F16C857D854E855F850889B7
:103090001989EA88FB88CC880E9442172C8986E02F
:1030A000289FB00111248C859D85680F791F7D872D
:1030B0006C878E89882301F1422F50E08AEF9FEFC1
:1030C0009C01429FC001439F900D529F900D11247F
:1030D00028853985820F931F861797076CF413E0B4
:1030E000440F551F1A95E1F78E859F85840F951F14
:1030F0009F878E871D861C8681E090E0DF91CF91AF
:103100001F910F91FF90EF90CF900895FC0175876C
:103110006487578746870895FC01738B628B718B98
:10312000608B0895FC01668B08950895DC01589624
:103130008C915897882329F06EBD0DB407FEFDCF02
:10314000089530E840E050E070E0832F90E086235F
:1031500097235996ED91FC915A9796962C919697B4
:10316000892B21F08081822B808304C0808120956F
:10317000282320835B96ED91FC915C978081979644
:103180009C919797892B80835B96ED91FC915C973E
:10319000908197968C919797809589238083369517
:1031A0004F5F5F4F4830510581F608950F931F938D
:1031B0008C01DC015F96ED91FC919097908199963E
:1031C0008C9199978095892380835D96ED91FC91F0
:1031D0005E97908198968C91809589238083C80111
:1031E0000E949618D8015D96ED91FC915E978081C2
:1031F00098969C91892B80831F910F9108950F932E
:103200001F938C01DC015F96ED91FC91909780817A
:1032100099969C919997892B80835D96ED91FC916D
:103220005E97908198968C91809589238083C801C0
:103230000E949618D8015D96ED91FC915E97808171
:1032400098969C91892B80831F910F910895CF921E
:10325000DF92EF92FF920F931F937C01162FC42EE3
:10326000D22E6AE20E94D618C70160E00E94FF18C1
:10327000F70162A5610FC7010E94FF18C70160E056
:103280000E94FF18F70162A56D0DC7010E94FF188B
:10329000C7016BE20E94D618C70160E00E94FF18C8
:1032A000F70163A56C0DC7010E94FF18C70160E01C
:1032B0000E94FF18F70163A5600FC7010E94FF1865
:1032C000C7016CE20E94D6181F910F91FF90EF90FA
:1032D000DF90CF900895FF920F931F93CF93DF93CA
:1032E000EC01F22E132F77FD2EC088859985681783
:1032F00079074CF557FD27C08A859B8548175907E4
:1033000014F5262F2F5F042F0F5FCE010E9427197F
:10331000EF8DF8A1808199A5892B8083ED8DFE8D9D
:10332000908188A5809589238083CE01612F0E949A
:103330009618CE016F2D0E949618ED8DFE8D80811E
:1033400098A5892B8083DF91CF911F910F91FF90DA
:103350000895DF92EF92FF920F931F93CF93DF9325
:10336000EC01FB017901D02E8885998568177907D2
:10337000D4F52A853B8542175307ACF5C701840F66
:10338000951F281739071CF47901E41AF50A042F50
:1033900001500E0DCE016E2F2E2F0E942719EF8D9A
:1033A000F8A1808199A5892B8083ED8DFE8D908178
:1033B00088A580958923808308C0CE01612F0E9453
:1033C0009618CE016D2D0E9496180894E108F10818
:1033D0008FEFE8168FEFF80681F7ED8DFE8D808177
:1033E00098A5892B8083DF91CF911F910F91FF903A
:1033F000EF90DF900895DF92EF92FF920F931F936B
:10340000CF93DF93EC01FA017901D02E288539851D
:1034100062177307D4F58A859B8548175907ACF561
:10342000C701860F971F281739071CF47901E61A80
:10343000F70A262F21502E0DCE014E2F0E2F0E945F
:103440002719EF8DF8A1808199A5892B8083ED8DB7
:10345000FE8D908188A580958923808308C0CE0148
:10346000612F0E949618CE016D2D0E949618089427
:10347000E108F1088FEFE8168FEFF80681F7ED8D80
:10348000FE8D808198A5892B8083DF91CF911F913C
:103490000F91FF90EF90DF900895EF92FF920F93BE
:1034A0001F93FC017B01A081B181208531850285BC
:1034B00013851E960D90BC91A02D60E070E040E059
:1034C00050E0FD0119951F910F91FF90EF90089525
:1034D000AF92BF92CF92DF92EF92FF920F931F9322
:1034E000CF93DF936C015901E801DC0118962D910F
:1034F0003C911997621773070CF057C01A96ED911B
:10350000FC911B974E175F070CF04FC0C501860F4B
:10351000971F281739071CF45901A61AB70ACE01BC
:10352000840F951FE817F9071CF4EF01C41BD50B96
:10353000262F21502A0D042F01500C0FC6010E9486
:103540002719D6015F96ED91FC919097808199960D
:103550009C919997892B80835D96ED91FC915E9764
:10356000908198968C918095892380838E010EC0DE
:10357000C6016F2D0E949618C6016E2D0E949618E6
:1035800021971C161D06A4F30150104010161106B9
:1035900014F4E501F6CFD6015D96ED91FC915E97AE
:1035A000808198969C91892B8083DF91CF911F9188
:1035B0000F91FF90EF90DF90CF90BF90AF90089564
:1035C000662311F460E201C061E20E94D6180895FA
:1035D000AF92BF92CF92DF92EF92FF920F931F9321
:1035E000CF93DF935C01FB01EB012196D49031C0B6
:1035F0008E010F5F1F4FFE016491C5010E94D61816
:1036000078010894E11CF11CF801C4900C2D0F778F
:10361000E701102F08C0FE012196E491C5016E2F2D
:103620000E94FF1811501123B1F7E701C00FD11DFF
:10363000C7FE0EC0FE018491682F70E06F3F7105D8
:1036400011F464EF71E0219680E090E00E94331164
:10365000DA94DD2069F6DF91CF911F910F91FF90F1
:10366000EF90DF90CF90BF90AF9008950F931F938E
:10367000CF93DF93EC018B011BA61AA68AA161E010
:103680000E94EE1189A161E00E94EE11E9A14E2F86
:1036900050E0FA01EE5CFE4FE491F0E0EE0FFF1F08
:1036A000E250FF4F859194919E8F8D8FEAA12E2F2E
:1036B00030E0F901EE5CFE4FE491F0E0EE0FFF1F09
:1036C000E250FF4F8591949198A38F8F48585E4F99
:1036D000FA01849188A728583E4FF901849189A75F
:1036E000888D882361F00E94621C80E00E94511C3A
:1036F00081E00E94431C80E00E944C1C3DC08DA1D3
:1037000061E00E94EE118CA161E00E94EE11EDA13A
:103710004E2F50E0FA01EE5CFE4FE491F0E0EE0F28
:10372000FF1FE250FF4FA591B491BC8FAB8FECA16E
:103730002E2F30E0F901EE5CFE4FE491F0E0EE0F49
:10374000FF1FE250FF4F859194919A8F898F4858BF
:103750005E4FFA0194919FA328583E4FF90184913E
:103760008EA38C91909598239C93E98DFA8D9081EE
:103770008EA1809589238083ED8DFE8D908188A513
:103780008095892380838BA1882309F161E00E94C1
:10379000EE118BA161E00E94A11264EF71E080E064
:1037A00090E00E9433118BA160E00E94A11264EFAF
:1037B00071E080E090E00E9433118BA161E00E94F3
:1037C000A11264EF71E080E090E00E9433110115D6
:1037D000110521F0CE01B8010E94E81ADF91CF91C6
:1037E0001F910F9108951F93CF93DF93EC01162F34
:1037F0006FEF76E00E94361B112351F4CE016AE38D
:1038000077E00E94E81A82E08AA781E08BA705C0D2
:10381000CE0167E477E00E94E81ACE0164E577E024
:103820000E94E81A123041F4CE0166E30E94D618D5
:10383000CE0160EC0E94FF181F8BDF91CF911F918A
:103840000895DF92EF92FF920F931F938C01F62E53
:10385000E42ED22E60E870E040EA50E00E9454135B
:103860008BE592E0F80191838083F1A2E2A2D3A2DA
:1038700081E0808F15A214A21F910F91FF90EF900D
:10388000DF9008950895882319F48CB5806202C0F2
:103890008CB58F7D8CBD08959CB5937F982B9CBD76
:1038A00008952CB5382F33702C7F322B3CBD2DB5AD
:1038B00090E0959587959595879581702E7F822BC1
:1038C0008DBD089584E361E00E94EE1183E361E021
:1038D0000E94EE1185E361E00E94EE1184E360E056
:1038E0000E94A11283E360E00E94A11285E361E0DF
:1038F0000E94A1128CB580618CBD8CB580648CBD9A
:103900000895F8940C94B11CAA1BBB1B51E107C08D
:10391000AA1FBB1FA617B70710F0A61BB70B881F5F
:10392000991F5A95A9F780959095BC01CD010895EE
:1039300097FB092E07260AD077FD04D0E5DF06D0D5
:1039400000201AF4709561957F4F0895F6F79095D1
:1039500081959F4F0895EE0FFF1F0590F491E02D84
:063960001994F894FFCF5A
:10396600596F752063616E206E6F742070757420B8
:1039760061200A20207069656365206865726500AC
:1039860057484954452057494E532100424C41431C
:103996004B2057494E532100445241572100010004
:1039A6000000002A181313421CB715B716D3166366
:1039B60016F21627179518000000002A1813136B25
:1039C60019B715A919FB196316681A4D1AE01A00DA
:00000001FF
